{"abi":[{"type":"constructor","inputs":[{"name":"_unlockTime","type":"uint256","internalType":"uint256"}],"stateMutability":"payable"},{"type":"function","name":"MAX_DEPOSIT_AMOUNT","inputs":[],"outputs":[{"name":"","type":"uint256","internalType":"uint256"}],"stateMutability":"view"},{"type":"function","name":"MIN_DEPOSIT_AMOUNT","inputs":[],"outputs":[{"name":"","type":"uint256","internalType":"uint256"}],"stateMutability":"view"},{"type":"function","name":"deposit","inputs":[],"outputs":[],"stateMutability":"payable"},{"type":"function","name":"deposits","inputs":[{"name":"","type":"address","internalType":"address"}],"outputs":[{"name":"","type":"uint256","internalType":"uint256"}],"stateMutability":"view"},{"type":"function","name":"getBalance","inputs":[],"outputs":[{"name":"","type":"uint256","internalType":"uint256"}],"stateMutability":"view"},{"type":"function","name":"getContractStats","inputs":[],"outputs":[{"name":"","type":"uint256","internalType":"uint256"},{"name":"","type":"uint256","internalType":"uint256"},{"name":"","type":"uint256","internalType":"uint256"}],"stateMutability":"view"},{"type":"function","name":"getUnlockTime","inputs":[],"outputs":[{"name":"","type":"uint256","internalType":"uint256"}],"stateMutability":"view"},{"type":"function","name":"getUserDeposit","inputs":[{"name":"user","type":"address","internalType":"address"}],"outputs":[{"name":"","type":"uint256","internalType":"uint256"}],"stateMutability":"view"},{"type":"function","name":"isUnlocked","inputs":[],"outputs":[{"name":"","type":"bool","internalType":"bool"}],"stateMutability":"view"},{"type":"function","name":"owner","inputs":[],"outputs":[{"name":"","type":"address","internalType":"address"}],"stateMutability":"view"},{"type":"function","name":"pause","inputs":[],"outputs":[],"stateMutability":"nonpayable"},{"type":"function","name":"paused","inputs":[],"outputs":[{"name":"","type":"bool","internalType":"bool"}],"stateMutability":"view"},{"type":"function","name":"totalDeposits","inputs":[],"outputs":[{"name":"","type":"uint256","internalType":"uint256"}],"stateMutability":"view"},{"type":"function","name":"totalWithdrawals","inputs":[],"outputs":[{"name":"","type":"uint256","internalType":"uint256"}],"stateMutability":"view"},{"type":"function","name":"transferOwnership","inputs":[{"name":"newOwner","type":"address","internalType":"address"}],"outputs":[],"stateMutability":"nonpayable"},{"type":"function","name":"unlockTime","inputs":[],"outputs":[{"name":"","type":"uint256","internalType":"uint256"}],"stateMutability":"view"},{"type":"function","name":"unpause","inputs":[],"outputs":[],"stateMutability":"nonpayable"},{"type":"function","name":"withdraw","inputs":[],"outputs":[],"stateMutability":"nonpayable"},{"type":"event","name":"Deposited","inputs":[{"name":"depositor","type":"address","indexed":true,"internalType":"address"},{"name":"amount","type":"uint256","indexed":false,"internalType":"uint256"}],"anonymous":false},{"type":"event","name":"OwnershipTransferred","inputs":[{"name":"previousOwner","type":"address","indexed":true,"internalType":"address"},{"name":"newOwner","type":"address","indexed":true,"internalType":"address"}],"anonymous":false},{"type":"event","name":"Paused","inputs":[{"name":"account","type":"address","indexed":false,"internalType":"address"}],"anonymous":false},{"type":"event","name":"Unpaused","inputs":[{"name":"account","type":"address","indexed":false,"internalType":"address"}],"anonymous":false},{"type":"event","name":"Withdrawn","inputs":[{"name":"withdrawer","type":"address","indexed":true,"internalType":"address"},{"name":"amount","type":"uint256","indexed":false,"internalType":"uint256"}],"anonymous":false},{"type":"error","name":"PiggyBank__DepositTooHigh","inputs":[]},{"type":"error","name":"PiggyBank__DepositTooLow","inputs":[]},{"type":"error","name":"PiggyBank__InsufficientBalance","inputs":[]},{"type":"error","name":"PiggyBank__NoDeposit","inputs":[]},{"type":"error","name":"PiggyBank__NotOwner","inputs":[]},{"type":"error","name":"PiggyBank__StillLocked","inputs":[]},{"type":"error","name":"PiggyBank__TransferFailed","inputs":[]},{"type":"error","name":"PiggyBank__ZeroAddress","inputs":[]},{"type":"error","name":"PiggyBank__ZeroAmount","inputs":[]}],"bytecode":{"object":"0x60806040526040516109fd3803806109fd833981016040819052610022916100c8565b4281116100755760405162461bcd60e51b815260206004820152601d60248201527f556e6c6f636b2074696d65206d75737420626520696e20667574757265000000604482015260640160405180910390fd5b5f80546001600160a01b03191633908117825560018390556002805460ff191690556040519091907f8be0079c531659141344cd1fd0a4f28419497f9722a3daafe3b4186f6b6457e0908290a3506100df565b5f602082840312156100d8575f80fd5b5051919050565b610911806100ec5f395ff3fe608060405260043610610105575f3560e01c80637d88209711610092578063c084b10b11610062578063c084b10b1461025f578063d0e30db014610293578063dfe6b5d61461029b578063f2fde38b146102c9578063fc7e286d146102e8575f80fd5b80637d882097146101e95780638380edb7146101fe5780638456cb59146102155780638da5cb5b14610229575f80fd5b80633f4ba83a116100d85780633f4ba83a1461016f5780634c34a982146101835780635c975abb14610197578063602bc62b146101c057806360464627146101d4575f80fd5b806312065fe0146101095780631ea30fef1461012a578063251c1aa3146101445780633ccfd60b14610159575b5f80fd5b348015610114575f80fd5b50475b6040519081526020015b60405180910390f35b348015610135575f80fd5b5061011766038d7ea4c6800081565b34801561014f575f80fd5b5061011760015481565b348015610164575f80fd5b5061016d610313565b005b34801561017a575f80fd5b5061016d6104f2565b34801561018e575f80fd5b506101175f1981565b3480156101a2575f80fd5b506002546101b09060ff1681565b6040519015158152602001610121565b3480156101cb575f80fd5b50600154610117565b3480156101df575f80fd5b5061011760055481565b3480156101f4575f80fd5b5061011760045481565b348015610209575f80fd5b506001544210156101b0565b348015610220575f80fd5b5061016d6105a6565b348015610234575f80fd5b505f54610247906001600160a01b031681565b6040516001600160a01b039091168152602001610121565b34801561026a575f80fd5b5061011761027936600461083a565b6001600160a01b03165f9081526003602052604090205490565b61016d61062f565b3480156102a6575f80fd5b506004546005544760408051938452602084019290925290820152606001610121565b3480156102d4575f80fd5b5061016d6102e336600461083a565b610762565b3480156102f3575f80fd5b5061011761030236600461083a565b60036020525f908152604090205481565b60025460ff161561033f5760405162461bcd60e51b815260040161033690610867565b60405180910390fd5b5f546001600160a01b0316331461038f5760405162461bcd60e51b81526020600482015260146024820152732834b3b3bca130b7359d102737ba1037bbb732b960611b6044820152606401610336565b6001544210156103e15760405162461bcd60e51b815260206004820152601760248201527f506967677942616e6b3a205374696c6c206c6f636b65640000000000000000006044820152606401610336565b478061041c5760405162461bcd60e51b815260206004820152600a6024820152694e6f2062616c616e636560b01b6044820152606401610336565b8060055f82825461042d9190610893565b909155505060405181815233907f7084f5476618d8e60b11ef0d7d3f06914655adb8793e28ff7f018d4c76d505d59060200160405180910390a26040515f90339083908381818185875af1925050503d805f81146104a6576040519150601f19603f3d011682016040523d82523d5f602084013e6104ab565b606091505b50509050806104ee5760405162461bcd60e51b815260206004820152600f60248201526e151c985b9cd9995c8819985a5b1959608a1b6044820152606401610336565b5050565b5f546001600160a01b0316331461051b5760405162461bcd60e51b8152600401610336906108b8565b60025460ff166105665760405162461bcd60e51b815260206004820152601660248201527510dbdb9d1c9858dd081a5cc81b9bdd081c185d5cd95960521b6044820152606401610336565b6002805460ff191690556040513381527f5db9ee0a495bf2e6ff9c91a7834c1ba4fdd244a5e8aa4e537bd38aeae4b073aa906020015b60405180910390a1565b5f546001600160a01b031633146105cf5760405162461bcd60e51b8152600401610336906108b8565b60025460ff16156105f25760405162461bcd60e51b815260040161033690610867565b6002805460ff191660011790556040513381527f62e78cea01bee320cd4e420270b5ea74000d11b0c9f74754ebdbfc544b05a2589060200161059c565b60025460ff16156106525760405162461bcd60e51b815260040161033690610867565b5f341161069a5760405162461bcd60e51b81526020600482015260166024820152754d757374206465706f73697420736f6d657468696e6760501b6044820152606401610336565b66038d7ea4c680003410156106e55760405162461bcd60e51b815260206004820152601160248201527011195c1bdcda5d081d1bdbc81cdb585b1b607a1b6044820152606401610336565b335f90815260036020526040812054906106ff3483610893565b9050335f90815260036020526040812082905560048054349290610724908490610893565b909155505060405134815233907f2da466a7b24304f47e87fa2e1e5a81b9831ce54fec19055ce277ca2f39ba42c49060200160405180910390a25050565b5f546001600160a01b0316331461078b5760405162461bcd60e51b8152600401610336906108b8565b6001600160a01b0381166107e15760405162461bcd60e51b815260206004820152601960248201527f4e6577206f776e6572206973207a65726f2061646472657373000000000000006044820152606401610336565b5f80546040516001600160a01b03808516939216917f8be0079c531659141344cd1fd0a4f28419497f9722a3daafe3b4186f6b6457e091a35f80546001600160a01b0319166001600160a01b0392909216919091179055565b5f6020828403121561084a575f80fd5b81356001600160a01b0381168114610860575f80fd5b9392505050565b60208082526012908201527110dbdb9d1c9858dd081a5cc81c185d5cd95960721b604082015260600190565b808201808211156108b257634e487b7160e01b5f52601160045260245ffd5b92915050565b6020808252600990820152682737ba1037bbb732b960b91b60408201526060019056fea2646970667358221220403cb9ef02c668a9c8582feccebbe6fdecd071dedabafc1514a3fb07eeb84c4064736f6c63430008140033","linkReferences":{}},"methodIdentifiers":{"MAX_DEPOSIT_AMOUNT()":"4c34a982","MIN_DEPOSIT_AMOUNT()":"1ea30fef","deposit()":"d0e30db0","deposits(address)":"fc7e286d","getBalance()":"12065fe0","getContractStats()":"dfe6b5d6","getUnlockTime()":"602bc62b","getUserDeposit(address)":"c084b10b","isUnlocked()":"8380edb7","owner()":"8da5cb5b","pause()":"8456cb59","paused()":"5c975abb","totalDeposits()":"7d882097","totalWithdrawals()":"60464627","transferOwnership(address)":"f2fde38b","unlockTime()":"251c1aa3","unpause()":"3f4ba83a","withdraw()":"3ccfd60b"},"id":19}