{"abi":[{"type":"constructor","inputs":[{"name":"_unlockTime","type":"uint256","internalType":"uint256"}],"stateMutability":"payable"},{"type":"function","name":"deposit","inputs":[],"outputs":[],"stateMutability":"payable"},{"type":"function","name":"getBalance","inputs":[],"outputs":[{"name":"","type":"uint256","internalType":"uint256"}],"stateMutability":"view"},{"type":"function","name":"getUnlockTime","inputs":[],"outputs":[{"name":"","type":"uint256","internalType":"uint256"}],"stateMutability":"view"},{"type":"function","name":"isUnlocked","inputs":[],"outputs":[{"name":"","type":"bool","internalType":"bool"}],"stateMutability":"view"},{"type":"function","name":"owner","inputs":[],"outputs":[{"name":"","type":"address","internalType":"address"}],"stateMutability":"view"},{"type":"function","name":"unlockTime","inputs":[],"outputs":[{"name":"","type":"uint256","internalType":"uint256"}],"stateMutability":"view"},{"type":"function","name":"withdraw","inputs":[],"outputs":[],"stateMutability":"nonpayable"},{"type":"event","name":"Deposited","inputs":[{"name":"depositor","type":"address","indexed":true,"internalType":"address"},{"name":"amount","type":"uint256","indexed":false,"internalType":"uint256"}],"anonymous":false},{"type":"event","name":"Withdrawn","inputs":[{"name":"withdrawer","type":"address","indexed":true,"internalType":"address"},{"name":"amount","type":"uint256","indexed":false,"internalType":"uint256"}],"anonymous":false}],"bytecode":{"object":"0x608060405260405161035e38038061035e8339810160408190526100229161003b565b5f80546001600160a01b03191633179055600155610052565b5f6020828403121561004b575f80fd5b5051919050565b6102ff8061005f5f395ff3fe60806040526004361061006e575f3560e01c8063602bc62b1161004c578063602bc62b146100be5780638380edb7146100d25780638da5cb5b146100f4578063d0e30db01461012a575f80fd5b806312065fe014610072578063251c1aa3146100935780633ccfd60b146100a8575b5f80fd5b34801561007d575f80fd5b50475b6040519081526020015b60405180910390f35b34801561009e575f80fd5b5061008060015481565b3480156100b3575f80fd5b506100bc610132565b005b3480156100c9575f80fd5b50600154610080565b3480156100dd575f80fd5b50600154421015604051901515815260200161008a565b3480156100ff575f80fd5b505f54610112906001600160a01b031681565b6040516001600160a01b03909116815260200161008a565b6100bc61024a565b6001544210156101895760405162461bcd60e51b815260206004820152601760248201527f506967677942616e6b3a205374696c6c206c6f636b656400000000000000000060448201526064015b60405180910390fd5b5f546001600160a01b031633146101d95760405162461bcd60e51b81526020600482015260146024820152732834b3b3bca130b7359d102737ba1037bbb732b960611b6044820152606401610180565b604051478082529033907f7084f5476618d8e60b11ef0d7d3f06914655adb8793e28ff7f018d4c76d505d59060200160405180910390a25f80546040516001600160a01b039091169183156108fc02918491818181858888f19350505050158015610246573d5f803e3d5ffd5b5050565b5f34116102925760405162461bcd60e51b81526020600482015260166024820152754d757374206465706f73697420736f6d657468696e6760501b6044820152606401610180565b60405134815233907f2da466a7b24304f47e87fa2e1e5a81b9831ce54fec19055ce277ca2f39ba42c49060200160405180910390a256fea26469706673582212204409c03a1ef2b6cac8dcdcf60ee887e88e6f249647617c6cb1620e0a584bfa3264736f6c63430008140033","linkReferences":{}},"methodIdentifiers":{"deposit()":"d0e30db0","getBalance()":"12065fe0","getUnlockTime()":"602bc62b","isUnlocked()":"8380edb7","owner()":"8da5cb5b","unlockTime()":"251c1aa3","withdraw()":"3ccfd60b"},"id":19}