{"abi":[{"type":"constructor","inputs":[{"name":"_unlockTime","type":"uint256","internalType":"uint256"}],"stateMutability":"payable"},{"type":"fallback","stateMutability":"payable"},{"type":"receive","stateMutability":"payable"},{"type":"function","name":"MAX_DEPOSIT_AMOUNT","inputs":[],"outputs":[{"name":"","type":"uint256","internalType":"uint256"}],"stateMutability":"view"},{"type":"function","name":"MAX_LOCK_TIME","inputs":[],"outputs":[{"name":"","type":"uint256","internalType":"uint256"}],"stateMutability":"view"},{"type":"function","name":"MIN_DEPOSIT_AMOUNT","inputs":[],"outputs":[{"name":"","type":"uint256","internalType":"uint256"}],"stateMutability":"view"},{"type":"function","name":"MIN_LOCK_TIME","inputs":[],"outputs":[{"name":"","type":"uint256","internalType":"uint256"}],"stateMutability":"view"},{"type":"function","name":"activateEmergencyMode","inputs":[{"name":"_unlockTime","type":"uint256","internalType":"uint256"}],"outputs":[],"stateMutability":"nonpayable"},{"type":"function","name":"canWithdraw","inputs":[{"name":"user","type":"address","internalType":"address"}],"outputs":[{"name":"","type":"bool","internalType":"bool"}],"stateMutability":"view"},{"type":"function","name":"deactivateEmergencyMode","inputs":[],"outputs":[],"stateMutability":"nonpayable"},{"type":"function","name":"deposit","inputs":[],"outputs":[],"stateMutability":"payable"},{"type":"function","name":"depositTimestamps","inputs":[{"name":"","type":"address","internalType":"address"}],"outputs":[{"name":"","type":"uint256","internalType":"uint256"}],"stateMutability":"view"},{"type":"function","name":"deposits","inputs":[{"name":"","type":"address","internalType":"address"}],"outputs":[{"name":"","type":"uint256","internalType":"uint256"}],"stateMutability":"view"},{"type":"function","name":"emergencyGuardian","inputs":[],"outputs":[{"name":"","type":"address","internalType":"address"}],"stateMutability":"view"},{"type":"function","name":"emergencyMode","inputs":[],"outputs":[{"name":"","type":"bool","internalType":"bool"}],"stateMutability":"view"},{"type":"function","name":"emergencyUnlockTime","inputs":[],"outputs":[{"name":"","type":"uint256","internalType":"uint256"}],"stateMutability":"view"},{"type":"function","name":"getBalance","inputs":[],"outputs":[{"name":"","type":"uint256","internalType":"uint256"}],"stateMutability":"view"},{"type":"function","name":"getContractStats","inputs":[],"outputs":[{"name":"totalDeposits_","type":"uint256","internalType":"uint256"},{"name":"totalWithdrawals_","type":"uint256","internalType":"uint256"},{"name":"numberOfDepositors_","type":"uint256","internalType":"uint256"},{"name":"emergencyMode_","type":"bool","internalType":"bool"},{"name":"contractBalance_","type":"uint256","internalType":"uint256"}],"stateMutability":"view"},{"type":"function","name":"getEmergencyTimeRemaining","inputs":[],"outputs":[{"name":"","type":"uint256","internalType":"uint256"}],"stateMutability":"view"},{"type":"function","name":"getMaxAdditionalDeposit","inputs":[{"name":"user","type":"address","internalType":"address"}],"outputs":[{"name":"","type":"uint256","internalType":"uint256"}],"stateMutability":"view"},{"type":"function","name":"getTimeRemaining","inputs":[],"outputs":[{"name":"","type":"uint256","internalType":"uint256"}],"stateMutability":"view"},{"type":"function","name":"getUnlockTime","inputs":[],"outputs":[{"name":"","type":"uint256","internalType":"uint256"}],"stateMutability":"view"},{"type":"function","name":"getUserDepositInfo","inputs":[{"name":"user","type":"address","internalType":"address"}],"outputs":[{"name":"userDeposit","type":"uint256","internalType":"uint256"},{"name":"timestamp","type":"uint256","internalType":"uint256"},{"name":"count","type":"uint256","internalType":"uint256"},{"name":"timeRemaining","type":"uint256","internalType":"uint256"}],"stateMutability":"view"},{"type":"function","name":"isUnlocked","inputs":[],"outputs":[{"name":"","type":"bool","internalType":"bool"}],"stateMutability":"view"},{"type":"function","name":"numberOfDepositors","inputs":[],"outputs":[{"name":"","type":"uint256","internalType":"uint256"}],"stateMutability":"view"},{"type":"function","name":"owner","inputs":[],"outputs":[{"name":"","type":"address","internalType":"address"}],"stateMutability":"view"},{"type":"function","name":"pause","inputs":[],"outputs":[],"stateMutability":"nonpayable"},{"type":"function","name":"paused","inputs":[],"outputs":[{"name":"","type":"bool","internalType":"bool"}],"stateMutability":"view"},{"type":"function","name":"setEmergencyGuardian","inputs":[{"name":"newGuardian","type":"address","internalType":"address"}],"outputs":[],"stateMutability":"nonpayable"},{"type":"function","name":"totalDeposits","inputs":[],"outputs":[{"name":"","type":"uint256","internalType":"uint256"}],"stateMutability":"view"},{"type":"function","name":"totalWithdrawals","inputs":[],"outputs":[{"name":"","type":"uint256","internalType":"uint256"}],"stateMutability":"view"},{"type":"function","name":"transferOwnership","inputs":[{"name":"newOwner","type":"address","internalType":"address"}],"outputs":[],"stateMutability":"nonpayable"},{"type":"function","name":"unlockTime","inputs":[],"outputs":[{"name":"","type":"uint256","internalType":"uint256"}],"stateMutability":"view"},{"type":"function","name":"unpause","inputs":[],"outputs":[],"stateMutability":"nonpayable"},{"type":"function","name":"updateMaxDepositAmount","inputs":[{"name":"newMaxAmount","type":"uint256","internalType":"uint256"}],"outputs":[],"stateMutability":"nonpayable"},{"type":"function","name":"userDepositCount","inputs":[{"name":"","type":"address","internalType":"address"}],"outputs":[{"name":"","type":"uint256","internalType":"uint256"}],"stateMutability":"view"},{"type":"function","name":"withdraw","inputs":[],"outputs":[],"stateMutability":"nonpayable"},{"type":"function","name":"withdrawAll","inputs":[],"outputs":[],"stateMutability":"nonpayable"},{"type":"event","name":"DepositLimitUpdated","inputs":[{"name":"oldLimit","type":"uint256","indexed":false,"internalType":"uint256"},{"name":"newLimit","type":"uint256","indexed":false,"internalType":"uint256"}],"anonymous":false},{"type":"event","name":"Deposited","inputs":[{"name":"depositor","type":"address","indexed":true,"internalType":"address"},{"name":"amount","type":"uint256","indexed":false,"internalType":"uint256"}],"anonymous":false},{"type":"event","name":"EmergencyGuardianChanged","inputs":[{"name":"oldGuardian","type":"address","indexed":true,"internalType":"address"},{"name":"newGuardian","type":"address","indexed":true,"internalType":"address"}],"anonymous":false},{"type":"event","name":"EmergencyModeActivated","inputs":[{"name":"activator","type":"address","indexed":true,"internalType":"address"},{"name":"unlockTime","type":"uint256","indexed":false,"internalType":"uint256"}],"anonymous":false},{"type":"event","name":"EmergencyWithdrawal","inputs":[{"name":"user","type":"address","indexed":true,"internalType":"address"},{"name":"amount","type":"uint256","indexed":false,"internalType":"uint256"}],"anonymous":false},{"type":"event","name":"OwnershipTransferred","inputs":[{"name":"previousOwner","type":"address","indexed":true,"internalType":"address"},{"name":"newOwner","type":"address","indexed":true,"internalType":"address"}],"anonymous":false},{"type":"event","name":"Paused","inputs":[{"name":"account","type":"address","indexed":false,"internalType":"address"}],"anonymous":false},{"type":"event","name":"Unpaused","inputs":[{"name":"account","type":"address","indexed":false,"internalType":"address"}],"anonymous":false},{"type":"event","name":"Withdrawn","inputs":[{"name":"withdrawer","type":"address","indexed":true,"internalType":"address"},{"name":"amount","type":"uint256","indexed":false,"internalType":"uint256"}],"anonymous":false},{"type":"error","name":"PiggyBank__Blacklisted","inputs":[]},{"type":"error","name":"PiggyBank__DepositTooHigh","inputs":[]},{"type":"error","name":"PiggyBank__DepositTooLow","inputs":[]},{"type":"error","name":"PiggyBank__EmergencyModeActive","inputs":[]},{"type":"error","name":"PiggyBank__InsufficientBalance","inputs":[]},{"type":"error","name":"PiggyBank__InvalidLockTime","inputs":[]},{"type":"error","name":"PiggyBank__InvalidUnlockTime","inputs":[]},{"type":"error","name":"PiggyBank__MaxUsersReached","inputs":[]},{"type":"error","name":"PiggyBank__NoDeposit","inputs":[]},{"type":"error","name":"PiggyBank__NotOwner","inputs":[]},{"type":"error","name":"PiggyBank__Paused","inputs":[]},{"type":"error","name":"PiggyBank__ReentrancyAttack","inputs":[]},{"type":"error","name":"PiggyBank__StillLocked","inputs":[]},{"type":"error","name":"PiggyBank__TransferFailed","inputs":[]},{"type":"error","name":"PiggyBank__Unauthorized","inputs":[]},{"type":"error","name":"PiggyBank__ZeroAddress","inputs":[]},{"type":"error","name":"PiggyBank__ZeroAmount","inputs":[]},{"type":"error","name":"PiggyBank__ZeroValue","inputs":[]}],"bytecode":{"object":"0x608060405260405161139a38038061139a833981016040819052610022916100c4565b80428111610042576040516251339b60e31b815260040160405180910390fd5b6100506309660180426100db565b8111156100705760405163fce05cc760e01b815260040160405180910390fd5b5f80546001600160a01b03191633908117825560018490556002805460ff191690556040519091907f8be0079c531659141344cd1fd0a4f28419497f9722a3daafe3b4186f6b6457e0908290a35050610100565b5f602082840312156100d4575f80fd5b5051919050565b808201808211156100fa57634e487b7160e01b5f52601160045260245ffd5b92915050565b61128d8061010d5f395ff3fe608060405260043610610207575f3560e01c80637cf4309011610117578063b488355f1161009f578063dac6270d1161006e578063dac6270d14610603578063dfe6b5d614610617578063f2fde38b14610661578063fa78668f14610680578063fc7e286d1461069757610259565b8063b488355f14610599578063bc394350146105b8578063d0e30db0146105dc578063d9c5e6d7146105e457610259565b8063853828b6116100e6578063853828b6146104dd5780638da5cb5b146104f157806399b20eaf14610527578063a338df381461053b578063b3a7834d1461055a57610259565b80637cf430901461048c5780637d882097146104a05780638380edb7146104b55780638456cb59146104c957610259565b80633ccfd60b1161019a5780635c975abb116101695780635c975abb1461040a578063602bc62b146104235780636046462714610437578063729c3e0e1461044c57806378dee4171461047757610259565b80633ccfd60b146103b05780633f4ba83a146103c45780633ff03207146103d85780634c34a982146103ee57610259565b80631ea30fef116101d65780631ea30fef14610341578063240be9441461035b578063251c1aa3146103865780632bf6c5bc1461039b57610259565b80630905f560146102b25780630945d42c146102e757806312065fe01461030657806319262d301461032257610259565b3661025957306001600160a01b031663d0e30db0346040518263ffffffff1660e01b81526004015f604051808303818588803b158015610245575f80fd5b505af1158015610257573d5f803e3d5ffd5b005b60405162461bcd60e51b815260206004820152602360248201527f506967677942616e6b3a204469726563742063616c6c73206e6f7420616c6c6f6044820152621dd95960ea1b60648201526084015b60405180910390fd5b3480156102bd575f80fd5b506002546102d290600160a81b900460ff1681565b60405190151581526020015b60405180910390f35b3480156102f2575f80fd5b506102576103013660046111b2565b6106c2565b348015610311575f80fd5b50475b6040519081526020016102de565b34801561032d575f80fd5b506102d261033c3660046111c9565b6107a7565b34801561034c575f80fd5b5061031466038d7ea4c6800081565b348015610366575f80fd5b506103146103753660046111c9565b60056020525f908152604090205481565b348015610391575f80fd5b5061031460015481565b3480156103a6575f80fd5b5061031460035481565b3480156103bb575f80fd5b506102576107f9565b3480156103cf575f80fd5b50610257610941565b3480156103e3575f80fd5b506103146201518081565b3480156103f9575f80fd5b50610314683635c9adc5dea0000081565b348015610415575f80fd5b506002546102d29060ff1681565b34801561042e575f80fd5b50600154610314565b348015610442575f80fd5b5061031460085481565b348015610457575f80fd5b506103146104663660046111c9565b60066020525f908152604090205481565b348015610482575f80fd5b5061031460095481565b348015610497575f80fd5b506103146109f7565b3480156104ab575f80fd5b5061031460075481565b3480156104c0575f80fd5b506102d2610a31565b3480156104d4575f80fd5b50610257610a4f565b3480156104e8575f80fd5b50610257610b03565b3480156104fc575f80fd5b505f5461050f906001600160a01b031681565b6040516001600160a01b0390911681526020016102de565b348015610532575f80fd5b50610257610c77565b348015610546575f80fd5b506102576105553660046111c9565b610ce8565b348015610565575f80fd5b506105796105743660046111c9565b610dbb565b6040805194855260208501939093529183015260608201526080016102de565b3480156105a4575f80fd5b506103146105b33660046111c9565b610e14565b3480156105c3575f80fd5b5060025461050f9061010090046001600160a01b031681565b610257610e5e565b3480156105ef575f80fd5b506102576105fe3660046111b2565b610fda565b34801561060e575f80fd5b506103146110cc565b348015610622575f80fd5b5060075460085460095460025460408051948552602085019390935291830152600160a81b900460ff161515606082015247608082015260a0016102de565b34801561066c575f80fd5b5061025761067b3660046111c9565b6110e9565b34801561068b575f80fd5b50610314630966018081565b3480156106a2575f80fd5b506103146106b13660046111c9565b60046020525f908152604090205481565b5f546001600160a01b031633146106eb5760405162461bcd60e51b81526004016102a9906111ef565b5f546001600160a01b0316331461071557604051631a93c53360e11b815260040160405180910390fd5b66038d7ea4c6800081101561073d576040516345556f1f60e01b815260040160405180910390fd5b60075481101561075f576040516251339b60e31b815260040160405180910390fd5b60408051683635c9adc5dea0000080825260208201849052917f88d01455e50f0b0da01a455a4547346410a2fd66ffdc7241a4c280d6089c4257910160405180910390a15050565b6002545f9060ff161580156107d257506001600160a01b0382165f9081526004602052604090205415155b80156107f35750600154421015806107f35750600254600160a81b900460ff165b92915050565b60025460ff161561081d5760405163012f773760e11b815260040160405180910390fd5b5f546001600160a01b03163314610847576040516363fc43ab60e11b815260040160405180910390fd5b60015442101561086a57604051632d4f9b0560e01b815260040160405180910390fd5b475f81900361088c5760405163870817fd60e01b815260040160405180910390fd5b8060085f82825461089d9190611231565b909155505060405181815233907f7084f5476618d8e60b11ef0d7d3f06914655adb8793e28ff7f018d4c76d505d59060200160405180910390a26040515f90339083908381818185875af1925050503d805f8114610916576040519150601f19603f3d011682016040523d82523d5f602084013e61091b565b606091505b505090508061093d576040516340d812e160e01b815260040160405180910390fd5b5050565b5f546001600160a01b0316331461096a5760405162461bcd60e51b81526004016102a9906111ef565b5f546001600160a01b0316331461099457604051631a93c53360e11b815260040160405180910390fd5b60025460ff166109b757604051631a93c53360e11b815260040160405180910390fd5b6002805460ff191690556040513381527f5db9ee0a495bf2e6ff9c91a7834c1ba4fdd244a5e8aa4e537bd38aeae4b073aa906020015b60405180910390a1565b6002545f90600160a81b900460ff161580610a1457506003544210155b15610a1e57505f90565b42600354610a2c9190611244565b905090565b5f60015442101580610a2c575050600254600160a81b900460ff1690565b5f546001600160a01b03163314610a785760405162461bcd60e51b81526004016102a9906111ef565b5f546001600160a01b03163314610aa257604051631a93c53360e11b815260040160405180910390fd5b60025460ff1615610ac65760405163012f773760e11b815260040160405180910390fd5b6002805460ff191660011790556040513381527f62e78cea01bee320cd4e420270b5ea74000d11b0c9f74754ebdbfc544b05a258906020016109ed565b60025460ff1615610b275760405163012f773760e11b815260040160405180910390fd5b600154421015610b4a57604051632d4f9b0560e01b815260040160405180910390fd5b335f9081526004602052604081205490819003610b7a5760405163e68effe160e01b815260040160405180910390fd5b335f90815260046020526040812081905560088054839290610b9d908490611231565b909155505060405181815233907f7084f5476618d8e60b11ef0d7d3f06914655adb8793e28ff7f018d4c76d505d59060200160405180910390a26040515f90339083908381818185875af1925050503d805f8114610c16576040519150601f19603f3d011682016040523d82523d5f602084013e610c1b565b606091505b5050905080610c3d576040516340d812e160e01b815260040160405180910390fd5b60405182815233907f23d6711a1d031134a36921253c75aa59e967d38e369ac625992824315e204f20906020015b60405180910390a25050565b60025461010090046001600160a01b03163314610ca757604051631a93c53360e11b815260040160405180910390fd5b6002805460ff60a81b191690555f6003556040513381527f5db9ee0a495bf2e6ff9c91a7834c1ba4fdd244a5e8aa4e537bd38aeae4b073aa906020016109ed565b5f546001600160a01b03163314610d115760405162461bcd60e51b81526004016102a9906111ef565b5f546001600160a01b03163314610d3b57604051631a93c53360e11b815260040160405180910390fd5b6001600160a01b038116610d6257604051631a93c53360e11b815260040160405180910390fd5b600280546001600160a01b03838116610100818102610100600160a81b031985161790945560405193909204169182907fc0cf06c8aac34052209a818a44d0ad3d4ed78bde060b69f7a4ce24560ad51068905f90a35050565b6001600160a01b0381165f90815260046020908152604080832054600583528184205460069093529083205460015491939091421015610e0a5742600154610e039190611244565b9050610e0d565b505f5b9193509193565b6001600160a01b0381165f90815260046020526040812054683635c9adc5dea000008110610e4457505f92915050565b610e5781683635c9adc5dea00000611244565b9392505050565b60025460ff1615610e825760405163012f773760e11b815260040160405180910390fd5b5f3411610eca5760405162461bcd60e51b81526020600482015260166024820152754d757374206465706f73697420736f6d657468696e6760501b60448201526064016102a9565b66038d7ea4c68000341015610f155760405162461bcd60e51b815260206004820152601160248201527011195c1bdcda5d081d1bdbc81cdb585b1b607a1b60448201526064016102a9565b335f9081526004602052604081205490610f2f3483611231565b9050683635c9adc5dea00000811115610f805760405162461bcd60e51b8152602060048201526013602482015272088cae0dee6d2e840caf0c6cacac8e640dac2f606b1b60448201526064016102a9565b335f90815260046020526040812082905560078054349290610fa3908490611231565b909155505060405134815233907f2da466a7b24304f47e87fa2e1e5a81b9831ce54fec19055ce277ca2f39ba42c490602001610c6b565b60025461010090046001600160a01b0316331461100a57604051631a93c53360e11b815260040160405180910390fd5b60025460ff161561102e5760405163012f773760e11b815260040160405180910390fd5b8042811161104e576040516251339b60e31b815260040160405180910390fd5b61105c630966018042611231565b81111561107c5760405163fce05cc760e01b815260040160405180910390fd5b60028054600384905560ff60ff60a81b0119166001600160a81b0117905560405182815233907f16ea6c4a0ff7e3a4c096560a5a71632e344907cd03af0f6e655b409a61d549ef90602001610c6b565b5f60015442106110db57505f90565b42600154610a2c9190611244565b5f546001600160a01b031633146111125760405162461bcd60e51b81526004016102a9906111ef565b5f546001600160a01b0316331461113c57604051631a93c53360e11b815260040160405180910390fd5b6001600160a01b03811661116357604051631a93c53360e11b815260040160405180910390fd5b5f80546001600160a01b038381166001600160a01b0319831681178455604051919092169283917f8be0079c531659141344cd1fd0a4f28419497f9722a3daafe3b4186f6b6457e09190a35050565b5f602082840312156111c2575f80fd5b5035919050565b5f602082840312156111d9575f80fd5b81356001600160a01b0381168114610e57575f80fd5b6020808252601490820152732834b3b3bca130b7359d102737ba1037bbb732b960611b604082015260600190565b634e487b7160e01b5f52601160045260245ffd5b808201808211156107f3576107f361121d565b818103818111156107f3576107f361121d56fea2646970667358221220b40737dd7e59556a572d59ae42ceb25b10310ea5ddcf3f662a816b1b1e7cc06a64736f6c63430008140033","linkReferences":{}},"methodIdentifiers":{"MAX_DEPOSIT_AMOUNT()":"4c34a982","MAX_LOCK_TIME()":"fa78668f","MIN_DEPOSIT_AMOUNT()":"1ea30fef","MIN_LOCK_TIME()":"3ff03207","activateEmergencyMode(uint256)":"d9c5e6d7","canWithdraw(address)":"19262d30","deactivateEmergencyMode()":"99b20eaf","deposit()":"d0e30db0","depositTimestamps(address)":"240be944","deposits(address)":"fc7e286d","emergencyGuardian()":"bc394350","emergencyMode()":"0905f560","emergencyUnlockTime()":"2bf6c5bc","getBalance()":"12065fe0","getContractStats()":"dfe6b5d6","getEmergencyTimeRemaining()":"7cf43090","getMaxAdditionalDeposit(address)":"b488355f","getTimeRemaining()":"dac6270d","getUnlockTime()":"602bc62b","getUserDepositInfo(address)":"b3a7834d","isUnlocked()":"8380edb7","numberOfDepositors()":"78dee417","owner()":"8da5cb5b","pause()":"8456cb59","paused()":"5c975abb","setEmergencyGuardian(address)":"a338df38","totalDeposits()":"7d882097","totalWithdrawals()":"60464627","transferOwnership(address)":"f2fde38b","unlockTime()":"251c1aa3","unpause()":"3f4ba83a","updateMaxDepositAmount(uint256)":"0945d42c","userDepositCount(address)":"729c3e0e","withdraw()":"3ccfd60b","withdrawAll()":"853828b6"},"id":19}